{
  "abi": [
    {
      "inputs": [],
      "name": "CHAINLINK_FEED_REGISTRY",
      "outputs": [
        {
          "internalType": "address",
          "name": "",
          "type": "address"
        }
      ],
      "stateMutability": "view",
      "type": "function"
    },
    {
      "inputs": [],
      "name": "MCD_PRICE_VERIFIER",
      "outputs": [
        {
          "internalType": "address",
          "name": "",
          "type": "address"
        }
      ],
      "stateMutability": "view",
      "type": "function"
    },
    {
      "inputs": [],
      "name": "UNISWAP_V3_FACTORY",
      "outputs": [
        {
          "internalType": "address",
          "name": "",
          "type": "address"
        }
      ],
      "stateMutability": "view",
      "type": "function"
    },
    {
      "inputs": [],
      "name": "UNISWAP_V3_NONFUNGIBLE_POSITION_MANAGER",
      "outputs": [
        {
          "internalType": "address",
          "name": "",
          "type": "address"
        }
      ],
      "stateMutability": "view",
      "type": "function"
    }
  ],
  "bytecode": {
    "object": "0x608060405234801561001057600080fd5b50610105806100206000396000f3fe6080604052348015600f57600080fd5b506004361060465760003560e01c80632aad74d314604b5780637d9f77121460815780639178977614609b578063f73e5aab1460b5575b600080fd5b606573eaa474cbffa87ae0f1a6f68a3aba6c77c656f72c81565b6040516001600160a01b03909116815260200160405180910390f35b60657347fb2585d2c56fe188d0e6ec628a38b74fceeedf81565b606573c36442b4a4522e871399cd717abdd847ab11fe8881565b6065731f98431c8ad98523631ae4a59f267346ea31f9848156fea2646970667358221220236a7a2a99b79aaa5faecf06d61d186f2d040df3af548a92685f76c4921d510364736f6c634300080a0033",
    "linkReferences": {}
  },
  "methodIdentifiers": {
    "CHAINLINK_FEED_REGISTRY()": "7d9f7712",
    "MCD_PRICE_VERIFIER()": "2aad74d3",
    "UNISWAP_V3_FACTORY()": "f73e5aab",
    "UNISWAP_V3_NONFUNGIBLE_POSITION_MANAGER()": "91789776"
  },
  "id": 13
}