{
  "abi": [
    {
      "inputs": [],
      "name": "CHAINLINK_FEED_REGISTRY",
      "outputs": [
        {
          "internalType": "address",
          "name": "",
          "type": "address"
        }
      ],
      "stateMutability": "view",
      "type": "function"
    },
    {
      "inputs": [],
      "name": "MCD_PRICE_VERIFIER",
      "outputs": [
        {
          "internalType": "address",
          "name": "",
          "type": "address"
        }
      ],
      "stateMutability": "view",
      "type": "function"
    },
    {
      "inputs": [],
      "name": "UNISWAP_V3_FACTORY",
      "outputs": [
        {
          "internalType": "address",
          "name": "",
          "type": "address"
        }
      ],
      "stateMutability": "view",
      "type": "function"
    },
    {
      "inputs": [],
      "name": "UNISWAP_V3_NONFUNGIBLE_POSITION_MANAGER",
      "outputs": [
        {
          "internalType": "address",
          "name": "",
          "type": "address"
        }
      ],
      "stateMutability": "view",
      "type": "function"
    },
    {
      "inputs": [
        {
          "internalType": "address",
          "name": "_token",
          "type": "address"
        }
      ],
      "name": "getChainlinkPrice",
      "outputs": [
        {
          "internalType": "int256",
          "name": "price",
          "type": "int256"
        }
      ],
      "stateMutability": "view",
      "type": "function"
    },
    {
      "inputs": [
        {
          "internalType": "address",
          "name": "_token",
          "type": "address"
        }
      ],
      "name": "getPrice",
      "outputs": [
        {
          "internalType": "uint256",
          "name": "",
          "type": "uint256"
        }
      ],
      "stateMutability": "view",
      "type": "function"
    },
    {
      "inputs": [
        {
          "internalType": "bytes",
          "name": "",
          "type": "bytes"
        },
        {
          "internalType": "bytes",
          "name": "_subData",
          "type": "bytes"
        }
      ],
      "name": "isTriggered",
      "outputs": [
        {
          "internalType": "bool",
          "name": "",
          "type": "bool"
        }
      ],
      "stateMutability": "view",
      "type": "function"
    }
  ],
  "bytecode": {
    "object": "0x6080604052600080546001600160a01b0319167347fb2585d2c56fe188d0e6ec628a38b74fceeedf17905534801561003657600080fd5b506105a0806100466000396000f3fe608060405234801561001057600080fd5b506004361061007d5760003560e01c8063917897761161005b57806391789776146100f657806391a973c614610111578063bd58fe5614610134578063f73e5aab1461014757600080fd5b80632aad74d31461008257806341976e09146100ba5780637d9f7712146100db575b600080fd5b61009d73eaa474cbffa87ae0f1a6f68a3aba6c77c656f72c81565b6040516001600160a01b0390911681526020015b60405180910390f35b6100cd6100c8366004610339565b610162565b6040519081526020016100b1565b61009d7347fb2585d2c56fe188d0e6ec628a38b74fceeedf81565b61009d73c36442b4a4522e871399cd717abdd847ab11fe8881565b61012461011f3660046103f9565b6101d6565b60405190151581526020016100b1565b6100cd610142366004610339565b61029f565b61009d731f98431c8ad98523631ae4a59f267346ea31f98481565b604051635eac7f2b60e11b81526001600160a01b03821660048201526000908190309063bd58fe5690602401602060405180830381865afa1580156101ab573d6000803e3d6000fd5b505050506040513d601f19601f820116820180604052508101906101cf919061045d565b9392505050565b600080828060200190518101906101ed9190610476565b905060006101fe8260000151610162565b90506000826040015160ff16600181111561021b5761021b6104e5565b600181111561022c5761022c6104e5565b141561024957816020015181111561024957600192505050610299565b6001826040015160ff166001811115610264576102646104e5565b6001811115610275576102756104e5565b141561029257816020015181101561029257600192505050610299565b6000925050505b92915050565b6000805460405163bcfd032d60e01b81526001600160a01b03848116600483015261034860248301529091169063bcfd032d9060440160a060405180830381865afa1580156102f2573d6000803e3d6000fd5b505050506040513d601f19601f82011682018060405250810190610316919061051a565b509195945050505050565b6001600160a01b038116811461033657600080fd5b50565b60006020828403121561034b57600080fd5b81356101cf81610321565b634e487b7160e01b600052604160045260246000fd5b600082601f83011261037d57600080fd5b813567ffffffffffffffff8082111561039857610398610356565b604051601f8301601f19908116603f011681019082821181831017156103c0576103c0610356565b816040528381528660208588010111156103d957600080fd5b836020870160208301376000602085830101528094505050505092915050565b6000806040838503121561040c57600080fd5b823567ffffffffffffffff8082111561042457600080fd5b6104308683870161036c565b9350602085013591508082111561044657600080fd5b506104538582860161036c565b9150509250929050565b60006020828403121561046f57600080fd5b5051919050565b60006060828403121561048857600080fd5b6040516060810181811067ffffffffffffffff821117156104ab576104ab610356565b60405282516104b981610321565b815260208381015190820152604083015160ff811681146104d957600080fd5b60408201529392505050565b634e487b7160e01b600052602160045260246000fd5b805169ffffffffffffffffffff8116811461051557600080fd5b919050565b600080600080600060a0868803121561053257600080fd5b61053b866104fb565b945060208601519350604086015192506060860151915061055e608087016104fb565b9050929550929590935056fea2646970667358221220123865fc141ad82ff9632f7309825a1a3ef32fb1e06d4c3d5ed2366c9cc282d064736f6c634300080a0033",
    "linkReferences": {}
  },
  "methodIdentifiers": {
    "CHAINLINK_FEED_REGISTRY()": "7d9f7712",
    "MCD_PRICE_VERIFIER()": "2aad74d3",
    "UNISWAP_V3_FACTORY()": "f73e5aab",
    "UNISWAP_V3_NONFUNGIBLE_POSITION_MANAGER()": "91789776",
    "getChainlinkPrice(address)": "bd58fe56",
    "getPrice(address)": "41976e09",
    "isTriggered(bytes,bytes)": "91a973c6"
  },
  "id": 7
}